:020000040800F2
:1000000000000220F14E0008D9080008DB080008B3
:10001000DD080008DF080008E10800080000000013
:10002000000000000000000000000000C12B0008DC
:10003000E308000800000000612C0008E508000843
:10004000414F0008414F0008414F0008414F000850
:10005000414F0008414F0008414F0008414F000840
:10006000414F0008414F0008414F0008414F000830
:10007000414F0008414F0008414F0008414F000820
:10008000414F0008414F0008414F000800000000A8
:10009000000000000000000000000000414F0008C8
:1000A000414F0008414F0008414F0008414F0008F0
:1000B000414F0008414F0008414F0008414F0008E0
:1000C000414F0008414F0008414F0008414F0008D0
:1000D000414F0008414F0008414F00080000000058
:1000E000414F0008414F0008414F00080000000048
:1000F000000000000000000000000000414F000868
:1001000000000000414F0008414F0008414F000827
:1001100000000000000000000000000000000000DF
:10012000414F0008414F0008414F0008414F00086F
:10013000414F000800000000000000000000000027
:10014000000000000000000000000000F1080008AE
:10015000414F0008414F0008414F0008414F00083F
:10016000414F0008414F000800000000000000005F
:10017000000000000000000000000000000000007F
:1001800000000000414F00080000000000000000D7
:08019000414F0008414F000837
:1001A00010B5054C237833B9044B13B10448AFF3B1
:1001B00000800123237010BDC80100200000000052
:1001C0005451000808B5034B1BB103490348AFF372
:1001D000008008BD00000000CC0100205451000840
:1001E00053B94AB9002908BF00281CBF4FF0FF319E
:1001F0004FF0FF3000F072B9ADF1080C6DE904CE9C
:1002000000F006F8DDF804E0DDE9022304B07047F1
:100210002DE9F047089E04468846002B4BD18A42C0
:10022000154667D9B2FA82F24AB1C2F1200701FA43
:1002300002F320FA07F7954047EA030894404FEA93
:10024000154E230CB8FBFEF71FFA85FC0EFB178832
:1002500043EA084307FB0CF1994209D9EB1807F16F
:10026000FF3080F01B81994240F21881023F2B44FD
:100270005B1AA4B2B3FBFEF00EFB103344EA034456
:1002800000FB0CFCA44509D92C1900F1FF3380F0C8
:100290000781A44540F2048102382C4440EA07401B
:1002A000A4EB0C0400271EB1D4400023C6E9004390
:1002B0003946BDE8F0878B4209D9002E00F0EB806B
:1002C0000027C6E9000138463946BDE8F087B3FA91
:1002D00083F7002F47D18B4202D3824200F2FA808B
:1002E000841A61EB030301209846002EE0D0C6E992
:1002F0000048DDE702B9FFDEB2FA82F2002A40F0E0
:100300008F80491B4FEA154E1FFA85F80127B1FB74
:10031000FEFC230C0EFB1C1143EA014308FB0CF10D
:10032000994207D9EB180CF1FF3002D2994200F242
:10033000CD808446591AA3B2B1FBFEF00EFB101417
:1003400043EA044408FB00F8A04507D92C1900F142
:10035000FF3302D2A04500F2B6801846A4EB080491
:1003600040EA0C409FE7C7F1200CBB4022FA0CFE8C
:100370004EEA030E01FA07F420FA0CF521FA0CF309
:100380004FEA1E482543B3FBF8F92C0C08FB193340
:100390001FFA8EFA44EA034309FB0AF49C4202FA6C
:1003A00007F200FA07F10BD91EEB030309F1FF3046
:1003B00080F087809C4240F28480A9F10209734456
:1003C0001B1BADB2B3FBF8F008FB103345EA034446
:1003D00000FB0AFAA24508D91EEB040400F1FF3322
:1003E0006BD2A24569D90238744440EA0940A0FBA7
:1003F0000289A4EB0A044C45C2464B4654D351D063
:10040000002E69D0B1EB0A0564EB030404FA0CFC7E
:10041000FD40FC404CEA0505C6E90054002747E7CB
:10042000C2F1200320FA03F7954001FA02F021FA05
:1004300003F34FEA154E3843010CB3FBFEF71FFAE6
:1004400085F80EFB173341EA034107FB08F38B42A3
:1004500004FA02F407D9691807F1FF3C2FD28B4246
:100460002DD9023F2944CB1A81B2B3FBFEF00EFB1B
:10047000103341EA034100FB08F38B4207D96918A6
:1004800000F1FF3C17D28B4215D902382944C91A12
:1004900040EA07473BE73746304609E70746E7E6C5
:1004A0001846FBE64145ABD2B8EB020A69EB0E02F7
:1004B00001381346A4E76046E9E7184695E7674622
:1004C000D1E781467CE702382C4447E7ACF1020CC7
:1004D0002B442FE7384608E73746E9E6704700BF68
:1004E0002DE9F0438DB000240194494B1A6B42F082
:1004F00010021A631A6B02F010020192019A029420
:100500001A6B42F004021A631A6B02F004020292A0
:10051000029A03941A6B42F080021A631A6B02F07B
:1005200080020392039A04941A6B42F001021A6348
:100530001A6B02F001020492049A05941A6B42F0BD
:1005400002021A631A6B02F002020592059A0694DF
:100550001A6B42F008021A631B6B03F00803069340
:10056000069B2C4E22460821304602F0B7F8DFF8F1
:10057000B09001221146484602F0B0F8264F2246BC
:100580004FF21001384602F0A9F8042307930894AB
:10059000099407A9304601F0CFFF082307930125EE
:1005A000089509940A9407A9304601F0C5FF322343
:1005B0000793DFF87080CDF82080099407A93046B2
:1005C00001F0BAFF0795089509940A9407A94846CF
:1005D00001F0B2FF0795CDF82080099407A90F48D4
:1005E00001F0AAFF4FF210030793089509940A94AB
:1005F00007A9384601F0A0FF202307930894099427
:1006000007A9384601F098FF0DB0BDE8F08300BFA0
:100610000038024000100240000C0240000002407E
:10062000000802400000121000B585B002F0E0FFA3
:10063000094B6C460FCB07C423800D21684603F09D
:10064000EFF94FF48051054802F04EF84FF4FA608C
:1006500002F0BDFFF1E700BFA0510008000C02400E
:1006600008B54FF48041044802F03EF84FF47A7028
:1006700002F0ADFFF5E700BF000C0240FEE700000E
:1006800008B50C480C4B03600C4B4360002383609F
:10069000C3604FF48042026143618361C3610362BE
:1006A00000F076FF00B908BD4FF484710448FFF7ED
:1006B000E5FF00BF443F002000540040A086010039
:1006C0009451000808B50C480C4B03604FF40073BC
:1006D000436000238360C3600361094A4261836110
:1006E000C3610123036201F01DF800B908BD4FF496
:1006F0008E710448FFF7C2FFF43F0020003800402D
:10070000007701009451000808B50C480C4B0360B9
:100710004FF40072426000238360C3600261094AA3
:1007200042618361C361036200F0FCFF00B908BD50
:100730004FF498710448FFF7A1FF00BF3C40002030
:10074000003C0040007701009451000808B50E48B5
:100750000E4B03604FF48273436000238360C360D9
:10076000036143614FF400728261C36103624362BB
:1007700083620A23C36201F0B1FA00B908BD4FF4E5
:10078000A4710348FFF77AFF983F00200030014032
:100790009451000800B59BB000220192314B196CB6
:1007A00041F0805119641B6C03F080530193019B4D
:1007B00002922D490B6823F4404343F400430B603D
:1007C0000B6803F440430293029B02230E93012122
:1007D0001191102112911493159208221692482219
:1007E00017921893032319930EA801F0B7FA68BB68
:1007F0000F23099302210A9100230B934FF4805297
:100800000C920D9309A801F0E1FC18BB012303939E
:10081000C8230593102304930223069303A801F031
:1008200097FDD8B901F07EFD104BA3FB0030800985
:1008300001F0B0FF042001F0C3FF00220F214FF0B0
:10084000FF3001F067FF1BB05DF804FBD3210848BF
:10085000FFF714FFE1210648FFF710FFEA210448E3
:10086000FFF70CFF0038024000700040D34D6210CB
:100870009451000800B58BB001F0D8FFFFF78AFF54
:10088000FFF72EFEFFF7FCFEFFF71CFFFFF73CFF14
:10089000FFF75CFF0D4C05AD26460FCE0FC5336844
:1008A0002B60002105A802F078FE094B18606D4608
:1008B00014340FCC0FC523682B600021684602F06A
:1008C0006CFE044B186002F063FEFEE76C510008FA
:1008D000403F0020F03F00207047FEE7FEE7FEE7C4
:1008E000FEE7704708B501F0BBFF02F079FE08BDD6
:1008F00008B5024803F08EF908BD00BFAC420020E5
:1009000010B582B000240094214B5A6C42F480420E
:100910005A645A6C02F480420092009A01941A6C54
:1009200042F080521A641B6C03F080530193019BC8
:10093000032001F0DDFE224621466FF00B0001F09E
:10094000E9FE224621466FF00A0001F0E3FE22464E
:1009500021466FF0090001F0DDFE224621466FF0CE
:10096000040001F0D7FE224621466FF0030001F09B
:10097000D1FE22460F216FF0010001F0CBFE22468E
:100980000F214FF0FF3001F0C5FE02B010BD00BFD7
:10099000003802400268114B9A4200D0704710B5EF
:1009A00086B04FF410730193122302930123039333
:1009B00000240494042305930DEB0301084801F07F
:1009C000BBFD0094074B1A6C42F400121A641B6CB6
:1009D00003F400130093009B06B010BD00540040C8
:1009E0000004024000380240F0B589B003682E4A86
:1009F000934204D02D4A934231D009B0F0BD002477
:100A000001942B4B1A6C42F480421A641B6C03F461
:100A100080430193019B04230393022504950594CD
:100A2000069406230793234F03A9384601F084FD5B
:100A3000082303930495059406940526079603A9B5
:100A4000384601F079FD4FF4A053039304950594C3
:100A50000694079603A9184801F06EFDCDE700241F
:100A60000294134B1A6C42F400421A641B6C03F498
:100A700000430293029B10230393022604960594DD
:100A800006940625079503A90C4801F055FD4FF47F
:100A9000A4530393049605940694079503A9054867
:100AA00001F04AFDA9E700BF00380040003C0040CB
:100AB00000380240000802400004024000000240EA
:100AC0000268114B9A4200D0704700B587B00021F0
:100AD000009103F584335A6C42F480525A645B6C83
:100AE00003F480530093009BE023019302230293BD
:100AF0000391032304930523059301A9034801F0FF
:100B00001BFD07B05DF804FB00300140000002400F
:100B100084B010B5044603A880E80E00089B012BA2
:100B200020D1A36B23F48033A363E36823F484030D
:100B300023F04003E360E36823F44013E3600F9B7A
:100B4000012B0AD0204600F005FD069B012B14D096
:100B50000020BDE8104004B07047E36843F4801300
:100B6000E360EFE7E36843F04003E360204600F012
:100B7000F1FC4FF48033A363E7E7A36843F0060377
:100B8000A360A36843F02003A360E1E7836843F018
:100B90000103836000207047836823F001038360B2
:100BA0000020704708B5C36823F0C043C360012923
:100BB00009D019B9C36843F08043C360322001F003
:100BC00061FE002008BDC36843F00053C360F5E731
:100BD00084B0F8B5044607A880E80E00119FBFB99D
:100BE000A36B43F40013A36325460023C4F8003E1F
:100BF00004F50066D4F80038C4F800380C9B012BCB
:100C000010D1099B4BB90021204600F0AFF80DE050
:100C1000A36B43F40023A363E6E70121204600F021
:100C2000A5F803E00321204600F0A0F8102120469B
:100C300000F076F8204600F087F8002333617361F6
:100C40004FF0FF32B261F36108E04FF09040C2F81C
:100C5000000900220A61FF228A6001330799994244
:100C60000BD905EB431202F51061D2F800090028F8
:100C7000EBDB0020C2F80009EBE7002308E04FF0AF
:100C8000904CC2F800CB00220261FF228260013347
:100C900099420DD905EB431202F53060D2F800CB32
:100CA000BCF1000FEBDB4FF0000CC2F800CBEAE721
:100CB000336923F4807333610A9B012B1AD000221D
:100CC000A2616FF0804262611BB9A36943F0100317
:100CD000A361A269104B1343A3610D9B1BB1A369D0
:100CE00043F00803A361012F0ED00020BDE8F840B7
:100CF00004B07047094A3263326B42F4803242F0EA
:100D000003023263326BDAE7A36943F0804343F0B6
:100D10000403A361E9E700BF00383C8000018000C4
:100D2000890141F02001016100230133054A93420A
:100D300005D8026912F0200FF7D100207047032078
:100D4000704700BF400D03001023036100230133EF
:100D5000054A934205D8026912F0100FF7D100201E
:100D600070470320704700BF400D0300D0F80038E3
:100D70001943C0F8001800207047D0F8083800F573
:100D8000006013F0060F10D0836803F00603022BF7
:100D90000DD0836803F00603062B0AD0836803F0A6
:100DA0000603042B07D00020704700207047032063
:100DB0007047032070470220704730B44B78012BF6
:100DC00022D0D0F81C380D780122AA4043EA024311
:100DD000C0F81C380B7800EB4310D0F8003B13F43C
:100DE000004F0ED1D0F8003B8A68C2F30A02C978DE
:100DF00042EA8142134343F0805343F40043C0F876
:100E0000003B002030BC7047D0F81C280D78AB4068
:100E10009BB21343C0F81C380C7800EB4410D0F898
:100E2000003913F4004FECD1D0F800398A68C2F3CE
:100E30000A02C97842EA814242EA8452134343F0EB
:100E4000805343F40043C0F80039DAE738B54B78F3
:100E5000012B36D00B78044600EB4313D3F8002B5C
:100E600022F40042C3F8002B0B7800EB43134FF041
:100E70000062C3F8002B0B7800EB43134FF0804265
:100E8000C3F8002B002201322B4B9A4252D80B7828
:100E900004EB431303F530639B6813F0100FF2D19A
:100EA000D0F8043843F48063C0F80438D0F81C3814
:100EB000097801228A4023EA0243C0F81C38002046
:100EC00038BD0B78044600EB4313D3F8002922F415
:100ED0000042C3F800290B7800EB43134FF0006287
:100EE000C3F800290B7800EB43134FF08042C3F89E
:100EF000002900220132104B9A4219D80B7804EBDA
:100F0000431303F510639B6813F0804FF2D10D4635
:100F100004461021FFF704FFD4F81C282978012388
:100F20008B409BB222EA0303C4F81C380020C7E7B9
:100F30000320C5E70320C3E7400D030070B582B06E
:100F40004B78012B3ED00B7800EB4313D3F8104BBA
:100F5000E40CE404C3F8104B0B7800EB4313D3F814
:100F6000104B24F0FF5424F4C014C3F8104B4B6909
:100F7000002B40F0D4800B7800EB4313D3F8104BD8
:100F80008D68C5F312052C43C3F8104B0B7800EBAA
:100F90004313D3F8104B44F40024C3F8104B012A38
:100FA00000F0DC80CB78012B00F0DF800B7800EBC9
:100FB0004310D0F8003B43F00443C0F8003B00204E
:100FC00002B070BD4B696BBB0B7800EB4313D3F8D9
:100FD000104924F0FF5424F4C014C3F810490B78CE
:100FE00000EB4313D3F8104944F40024C3F810492C
:100FF0000B7800EB4313D3F81049E40CE404C3F876
:101000001049012A54D0CB78012B57D04B69002BC3
:1010100054D0D0F834380E780124B4402343C0F8BB
:1010200034384BE00B7800EB4313D3F81049E40C51
:10103000E404C3F810490B7800EB4313D3F81049CC
:1010400024F0FF5424F4C014C3F810490C7800EBCA
:101050004414D4F810594B698E683344013BB3FBF8
:10106000F6F34E4E06EAC3432B43C4F810390B780F
:1010700000EB4313D3F810494D69C5F312052C4317
:10108000C3F81049CB78012BBBD10B7800EB43138D
:10109000D3F8104924F0C044C3F810490B7800EB92
:1010A0004313D3F8104944F00054C3F81049A8E79B
:1010B0000B7800EB43130C69C3F81449CB78012B70
:1010C00014D00B7800EB4313D3F8004944F00444E8
:1010D000C3F80049CB78012B7FF471AF14468B8A9B
:1010E0000A78C968009400F00BF968E7D0F808386E
:1010F00013F4807F09D10B7800EB4313D3F8004938
:1011000044F00054C3F80049DBE70B7800EB4313CD
:10111000D3F8004944F08054C3F80049D1E78C6803
:101120002344013BB3FBF4F30C7800EB4414D4F8F4
:10113000105B1A4E06EAC3463543C4F8105B0C78C0
:1011400000EB4414D4F8106B8D689BB205FB03F5DB
:10115000C5F312053543C4F8105B20E7CA680B7865
:1011600000EB4313C3F8142B1CE7D0F8083813F432
:10117000807F09D10B7800EB4313D3F8002B42F0AA
:101180000052C3F8002B11E70B7800EB4313D3F8A0
:10119000002B42F08052C3F8002B07E70000F81F35
:1011A00030B44B78012B39D00B7800EB4313D3F8D4
:1011B000104BE40CE404C3F8104B0B7800EB431322
:1011C000D3F8104B24F0FF5424F4C014C3F8104B90
:1011D0004B690BB18B684B610B7800EB4313D3F871
:1011E000104B44F40024C3F8104B0B7800EB43136E
:1011F000D3F8104B8D68C5F312052C43C3F8104B80
:10120000012A76D00B7800EB4310D0F8003B43F076
:101210000443C0F8003B002030BC70474B699BBBC7
:101220000B7800EB4313D3F8104924F0FF5424F457
:10123000C014C3F810490B7800EB4313D3F81049DE
:1012400044F40024C3F810490B7800EB4313D3F89F
:101250001049E40CE404C3F810490B7800EB431385
:10126000D3F8004944F00444C3F80049012A39D0B6
:101270004B69002BCFD0D0F83438097801228A404E
:101280001343C0F83438C6E70B7800EB4313D3F8A8
:101290001049E40CE404C3F810490B7800EB431345
:1012A000D3F8104924F0FF5424F4C014C3F81049B3
:1012B0004C698B689C4200D94B610B7800EB43135F
:1012C000D3F8104944F40024C3F810490B7800EB1C
:1012D0004313D3F810494D69C5F312052C43C3F8E5
:1012E0001049BAE70B7800EB43100B69C0F81439CA
:1012F00091E7CA680B7800EB4313C3F8142B81E71E
:1013000070B49DF80C4064B903339D0807E000EB0E
:10131000023303F5805351F8046B1E600134AC4274
:10132000F5D3002070BC704703329208002393422B
:101330000CD210B400F58054246841F8044B0133FA
:101340009342F7D308465DF8044B70470846704750
:101350004B78012B17D00B7800EB4313D3F8002BFD
:10136000002A05DBD3F8002B22F08042C3F8002BC3
:101370000B7800EB4310D0F8003B43F40013C0F8A7
:10138000003B002070470B7800EB4313D3F8002993
:10139000002A05DBD3F8002922F08042C3F8002997
:1013A0000B7800EB4310D0F8003943F40013C0F879
:1013B0000039E6E74B78012B0FD00B7800EB431395
:1013C000D3F8002B22F40012C3F8002BCB78023B99
:1013D000DBB2012B19D9002070470B7800EB4313C7
:1013E000D3F8002922F40012C3F80029CB78023B7D
:1013F000DBB2012BEFD80B7800EB4310D0F80039AB
:1014000043F08053C0F80039E5E70B7800EB431058
:10141000D0F8003B43F08053C0F8003BDBE7D0F846
:10142000003823F4FE63C0F80038D0F80038090112
:1014300001F4FE610B43C0F800380020704708B586
:10144000D0F8043823F00203C0F80438032001F078
:1014500019FA002008BD08B5D0F8043843F002039B
:10146000C0F80438032001F00DFA002008BD4269DD
:10147000806910407047D0F8183800F50060C069E6
:101480001840000C7047D0F8183800F50060C069AB
:10149000184080B2704700EB4111D1F8082B00F5DD
:1014A000006040691040704710B4D0F81048D0F880
:1014B0003438CB40DB01DBB2234300EB411000F5B5
:1014C0001060806818405DF8044B7047406900F078
:1014D00001007047D0F8003923F4FF6323F00703BD
:1014E000C0F8003900F500639A6802F00602042A89
:1014F00005D05A6842F480725A6000207047D0F8D4
:10150000002942F00302C0F80029F2E710B40024D9
:10151000C0F8104BD0F8104B44F40024C0F8104B26
:10152000D0F8104B44F01804C0F8104BD0F8104B12
:1015300044F0C044C0F8104B012903D000205DF8EE
:10154000044B7047C0F8142B4FF08023C0F8003BC9
:10155000F4E70000002301330C4A934211D80269DA
:10156000002AF8DA036943F0010303610023013321
:10157000064A934207D8026912F0010FF7D1002002
:101580007047032070470320704700BF400D0300E1
:10159000002800F0828010B5044690F83D30002B02
:1015A00041D0242384F83D302268136823F00103DE
:1015B000136000F0BDFE3A4BA3FB00239B0C226896
:1015C00053606168374A914232D80133226813620E
:1015D0006368344A934235D85B00B0FBF3F0C0F344
:1015E0000B03032B00D804202368D861E369216A28
:1015F00022680B4313602369E16822680B43936000
:101600006369A16922680B43D3602268136843F0C1
:101610000103136000202064202384F83D30206300
:1016200084F83E0010BD80F83C30FFF7B3F9B8E70E
:101630004FF4967202FB03F31B4AA2FB03239B09A0
:101640000133C3E7A16889B903EB4302B0FBF2F2AF
:10165000C2F30B02B2FA82F25209E2B991B903EB7A
:101660004303B0FBF3F040F40040BDE703EB83021B
:1016700002EB8202B0FBF2F2C2F30B02B2FA82F288
:101680005209EAE703EB830303EB8303B0FBF3F0B8
:1016900040F44040A8E70120A6E70120704700BFC2
:1016A00083DE1B43A0860100D34D6210704708B54E
:1016B000436A9A1C426202681B88D360438D013BD7
:1016C0009BB24385438D9BB203B108BD026853684A
:1016D00023F0A0031B041B0C5360012380F841304E
:1016E000FFF7E4FFF1E7704708B50368DA68C36AFB
:1016F000991CC1621A80438E013B9BB24386438E84
:101700009BB203B108BD0268536823F060031B0459
:101710001B0C5360012380F84130FFF7E4FFF1E731
:1017200070470000002800F0BB8070B50446022519
:1017300080F841505B4B4363FFF756F92268D36949
:1017400023F47B6323F00F03D36123681D622368B6
:10175000DD696369022B5BD0E368002B3ED0202655
:10176000A368202B00D87600012000F0A9FE236991
:10177000B3F5007F34D0B0FBF6F000EB80004300FF
:101780006269B3FBF2F30533474AA2FB0323DB088C
:1017900003F001029B1AC3F34F0311029A1EFD2AA4
:1017A00038D822690A43216813430B626268A16832
:1017B000E068238B03439BB20B439BB213439BB262
:1017C00043F400631D432368DD61236A012B2AD0A3
:1017D00000206064012384F8413070BD1026BFE70B
:1017E000E36853B1B600B0FBF6F000EB80004300B5
:1017F0006269B3FBF2F30533C6E7F600B0FBF6F01F
:1018000000EB800043006269B3FBF2F30533BBE7F2
:101810000021C3E7636C43F0100363642046FFF7C5
:101820007FFF0120D9E7214B63632268204B9A4256
:101830001ED04FF04022D36923F47B6323F00F03C3
:10184000D36122681A4B9A4214D04FF040230222EF
:101850001A622268164B9A420FD04FF04022D0698C
:101860006168B1F5007F0AD0C1B94FF4807608E015
:10187000104AE0E7A3F58063E9E70E4AEFE74FF48B
:101880008076A168E568238B2B439BB20B439BB208
:10189000334343F400630343D36199E70026F0E741
:1018A00001207047B9180008CDCCCCCCD51A00085F
:1018B000003800400034004010B584B0044602688F
:1018C0009368039390F84130DBB2042B06D094F870
:1018D0004130DBB2032B2ED004B010BD039B13F0BC
:1018E000010F03D0536813F0400F21D1039B13F075
:1018F000400FECD023685A6812F0200FE7D05A68E6
:1019000022F060021204120C5A6000230193236833
:10191000DA6801929B680193019B012384F84130AE
:10192000636C43F0020363642046FFF7F9FECEE7E1
:10193000FFF7DAFEDAE7039B13F0020F04D0236807
:101940005B6813F0800F1FD1039B13F0080FC3D007
:1019500023685A6812F0200FBED05A6822F0A00205
:101960001204120C5A600023029323689B680293AE
:10197000029B012384F84130636C43F004036364E9
:101980002046FFF7CDFEA7E72046FFF790FEDBE7F6
:101990007047000008B5E9B9436A9A1C42620268C0
:1019A0001B88D360438D013B9BB24385438D9BB223
:1019B0004BB90268536823F0A0031B041B0C53604F
:1019C000438E9BB203B108BD012380F84130FFF77D
:1019D000DFFFF8E7436A9A1C42621A880168134BDA
:1019E00099421ED04FF04023DA60438D013B9BB2F9
:1019F0004385438D9BB2002BE5D102680B4B9A4285
:101A000012D04FF04022536823F0A0035360438E5E
:101A10009BB2002BD7D1012380F84130FFF7B8FFEC
:101A2000D1E7A3F58063DFE7014AECE70038004027
:101A30000034004008B5E9B90368DA68C36A991C44
:101A4000C1621A80438E013B9BB24386438E9BB298
:101A50004BB90268536823F060031B041B0C5360EE
:101A6000438D9BB203B108BD012380F84130FFF7DD
:101A70008FFFF8E70268154B9A4222D04FF04023BF
:101A8000DA68C36A991CC1621A80438E013B9BB21B
:101A90004386438E9BB2002BE5D102680B4B9A42E2
:101AA00012D04FF04022536823F060035360438DFF
:101AB0009BB2002BD7D1012380F84130FFF768FF9C
:101AC000D1E7A3F58063DBE7014AECE7003800408B
:101AD0000034004010B584B0044603689A6803924D
:101AE0007C4A93425DD04FF040218A680292DA69C5
:101AF00002F44072B2F5007F04D0DA6912F4407F3C
:101B000040F08180039A12F0020F03D05B6813F05B
:101B1000800F48D1029B13F0010F09D022686D4B52
:101B20009A4245D04FF040235B6813F0400F42D1FA
:101B3000029B13F0400F09D02268664B9A423FD0B7
:101B40004FF040235A6812F0200F3CD1039B13F052
:101B5000080F24D023685A6812F0200F1FD05A684B
:101B600022F0A0021204120C5A602268594B9A42C9
:101B700047D04FF04022536823F0600353600023A6
:101B8000019323689B680193019B012384F84130F2
:101B9000636C43F0040363642046FFF7C1FD04B0A7
:101BA00010BD4D49A1E700212046FFF7F3FEB1E744
:101BB000A3F58063B8E701212046FFF73BFFB7E7B5
:101BC000A3F58063BEE75A6822F060025A6022687B
:101BD000536823F0A0031B041B0C536000230093E5
:101BE0002368DA6800929B680093009B012384F8C5
:101BF0004130636C43F0020363642046FFF790FDBD
:101C0000A4E7354AB7E7029B13F0020F03D04B68F5
:101C100013F0800F4FD1039B13F0010F04D0236802
:101C20005B6813F0400F4BD1039B13F0400F1ED0A5
:101C300023685A6812F0200F19D05A6822F0600207
:101C40001204120C5A602268224B9A423DD04FF087
:101C50004022536823F0A0035360012384F84130ED
:101C6000636C43F0020363642046FFF759FD029B57
:101C700013F0080F93D02268164B9A4227D04FF0EA
:101C800040235A6812F0200F89D05A6822F0A0022F
:101C90005A602268536823F060031B041B0C5360D6
:101CA000012384F84130636C43F0040363642046ED
:101CB000FFF736FD73E701212046FFF76BFEAAE729
:101CC00000212046FFF7B6FEAEE7034AC1E7A3F5C1
:101CD0008063D6E7003800400034004000283BD045
:101CE00010B504460023836290F85130002B2ED0AB
:101CF000022384F851302268136823F040031360F4
:101D00006368A2681343E26813432269134362695C
:101D10001343A26902F400721343E2691343226A77
:101D20001343A16A22680B431360638B03F004031F
:101D3000616A22680B4353602268D36923F400630D
:101D4000D36100206065012384F8513010BD80F814
:101D50005030FEF7B5FECBE701207047002800F0B9
:101D6000BB8170B582B00446036813F0010F3BD00D
:101D7000A74B9B6803F00C03042B2CD0A44B9B684F
:101D800003F00C03082B21D06368B3F5803F4FD0DC
:101D9000B3F5A02F52D09E4B1A6822F480321A60FD
:101DA0001A6822F480221A606368002B50D000F079
:101DB00063FD0546964B1B6813F4003F14D100F0F9
:101DC0005BFD401B6428F5D903208AE1904B5B68DA
:101DD00013F4800FD8D08E4B1B6813F4003F03D050
:101DE0006368002B00F07A81236813F0020F55D04E
:101DF000874B9B6813F00C0F3ED0854B9B6803F01C
:101E00000C03082B33D0E368002B68D0814B0122F0
:101E10001A6000F031FD05467D4B1B6813F0020F80
:101E200054D100F029FD401B0228F5D9032058E1C8
:101E3000774A136843F480331360B5E7744B1A682C
:101E400042F480221A601A6842F480321A60ABE7CA
:101E500000F012FD05466E4B1B6813F4003FC3D023
:101E600000F00AFD401B6428F5D9032039E1684BD6
:101E70005B6813F4800FC6D1654B1B6813F0020F2B
:101E800004D0E368012B01D001202AE1604A1368E5
:101E900023F0F803216943EAC1031360236813F0B8
:101EA000080F40D0636963B35B4B01221A6000F0F6
:101EB000E3FC0546564B5B6F13F0020F33D100F085
:101EC000DBFC401B0228F5D903200AE1504A1368C5
:101ED00023F0F803216943EAC1031360DEE74D4BA9
:101EE00000221A6000F0C8FC0546494B1B6813F03D
:101EF000020FD3D000F0C0FC401B0228F5D903200C
:101F0000EFE0454B00221A6000F0B6FC0546404B5E
:101F10005B6F13F0020F06D000F0AEFC401B0228EE
:101F2000F5D90320DDE0236813F0040F79D0384B96
:101F30001B6C13F0805F33D100230193344B1A6C78
:101F400042F080521A641B6C03F080530193019B92
:101F50000125324B1B6813F4807F23D0A368012B2B
:101F600034D0052B38D02A4B1A6F22F001021A67A1
:101F70001A6F22F004021A67A368002B36D000F013
:101F80007BFC0646224B1B6F13F0020F48D100F07A
:101F900073FC801B41F288339842F3D90320A0E000
:101FA0000025D6E71D4A136843F48073136000F0E0
:101FB00063FC0646194B1B6813F4807FCED100F0FA
:101FC0005BFC801B0228F5D903208AE0104A136FBE
:101FD00043F001031367CFE70D4B1A6F42F0040281
:101FE0001A671A6F42F001021A67C5E700F044FC55
:101FF0000646074B1B6F13F0020F11D000F03CFC9C
:10200000801B41F288339842F3D9032069E000BF76
:102010000038024000004742800E474200700040F6
:10202000E5B9A369002B5BD0304A926802F00C023C
:10203000082A58D0022B17D02D4B00221A6000F02E
:102040001BFC0446294B1B6813F0007F42D000F0B4
:1020500013FC001B0228F5D9032042E0234A136C2D
:1020600023F080531364DCE7214B00221A6000F058
:1020700003FC05461D4B1B6813F0007F06D000F0E3
:10208000FBFB401B0228F5D903202AE0E369226A02
:102090001343626A43EA8213A26A5208013A43EA8E
:1020A0000243E26A43EA0263104A5360104B012282
:1020B0001A6000F0E1FB04460C4B1B6813F0007F34
:1020C00006D100F0D9FB001B0228F5D9032008E057
:1020D000002006E0002004E001207047012000E01D
:1020E000002002B070BD0120FBE700BF00380240B5
:1020F00060004742324B9B6803F00C03042B5CD01A
:10210000082B01D02F4870472DE9F04B2C4B5A6813
:1021100002F03F025B6813F4800F2BD0284B5B6802
:10212000C3F388131E4600275C010025E41A65EB03
:102130000705A90141EA9461A001001B61EB0501BB
:10214000CB0043EA5073C400A01943EB07014B02D4
:1021500043EAD0534402204619460023FEF740F8D4
:10216000174B5B68C3F3014301335B00B0FBF3F033
:10217000BDE8F08B124B5B68C3F388131E46002743
:102180005C010025E41A65EB0705A90141EA9461A9
:10219000A001001B61EB0501CB0043EA5073C400B2
:1021A000A01943EB07018B0243EA905384022046B7
:1021B00019460023FEF714F8D2E70348704700BF22
:1021C000003802400024F40000127A00002800F0D9
:1021D0009D8070B504464F4B1B6803F00F038B4284
:1021E00009D2CBB24B4A1370136803F00F038B4232
:1021F00001D0012070BD236813F0020F17D013F037
:10220000040F04D0444A936843F4E0539360236876
:1022100013F0080F04D0404A936843F4604393607E
:102220003D4A936823F0F003A068034393600D4692
:10223000236813F0010F32D06368012B21D09A1E5E
:10224000012A25D9344A126812F0020F60D03249AF
:102250008A6822F0030213438B6000F00DFB0646F0
:102260002D4B9B6803F00C036268B3EB820F16D012
:1022700000F002FB801B41F288339842F0D9032022
:10228000B8E7254A126812F4003FE0D10120B1E717
:10229000214A126812F0007FD9D10120AAE71D4B14
:1022A0001B6803F00F03AB4209D9EAB2194B1A704D
:1022B0001B6803F00F03AB4201D001209AE72368AB
:1022C00013F0040F06D0144A936823F4E053E16836
:1022D0000B439360236813F0080F07D00E4A9368EE
:1022E00023F46043216943EAC1039360FFF702FFCF
:1022F000094B9B68C3F30313084AD35CD840084BCF
:1023000018600F2000F06CFA002073E7012070477E
:1023100001206FE7003C024000380240CC51000829
:1023200008000020014B1868704700BF080000201B
:1023300008B5FFF7F7FF044B9B68C3F38223034AFA
:10234000D35CD84008BD00BF00380240DC51000813
:1023500030B583B00446036813F0050F0ED123682F
:1023600013F0020F38D1236813F0080F00F09B80A0
:10237000227D4E4B1A60002003B030BD4C4B002232
:102380001A6000F079FA05464A4B1B6813F0006F9B
:1023900006D000F071FA401B0228F5D90320EBE7C4
:1023A0006368A26843EA8213E26843EA0273414A1F
:1023B000C2F884303E4B01221A6000F05DFA0546F7
:1023C0003C4B1B6813F0006FC9D100F055FA401B5D
:1023D0000228F5D90320CFE700230193354B1A6C6F
:1023E00042F080521A641B6C03F080530193019BEE
:1023F000314A136843F48073136000F03DFA0546D8
:102400002D4B1B6813F4807F06D100F035FA401B7A
:102410000228F5D90320AFE7264B1B6F13F4407356
:1024200012D0226902F440729A420DD0214B1A6FE9
:1024300022F44072214901200860002008601A67D8
:102440001B6F13F0010F12D1236903F44072B2F530
:10245000407F1DD0174A936823F4F8139360154901
:102460000B6F2269C2F30B0213430B677BE700F08B
:1024700003FA05460F4B1B6F13F0020FE4D100F077
:10248000FBF9401B41F288339842F3D9032073E7EC
:1024900008498A6822F4F81223F0704323F4407349
:1024A00013438B60DBE7002066E700BFE011474283
:1024B000680047420038024000700040400E47422A
:1024C00001282CD1184B9B6813F4000303D0012B77
:1024D00027D116487047144B5B6813F4800F15D052
:1024E000114BD3F8843003F03F031148B0FBF3F0F5
:1024F0000D4AD2F88430C3F3881300FB03F0D2F8FE
:102500008430C3F30273B0FBF3F07047064BD3F88B
:10251000843003F03F030748B0FBF3F0E8E7002006
:1025200070470020704700BF003802400080BB00A9
:1025300000127A000024F40000230F2B00F2C58063
:10254000F0B482B039E0042200E00022B2403A4305
:1025500002345E4E46F824205D4A1468EA4302EADB
:1025600004064F6817F4803F01D045EA0406584C32
:102570002660646802EA04064F6817F4003F01D041
:1025800045EA0406524C6660A46802EA04064F68F5
:1025900017F4801F01D045EA04064D4CA660E4689C
:1025A00022404E6816F4001F01D045EA0402484C50
:1025B000E26001330F2B00F2858001229A400C6803
:1025C00004EA0205AA42F4D14C68022C01D0122C74
:1025D00010D1DE08083650F826C003F00704A70023
:1025E0000F24BC402CEA040C0C69BC4044EA0C04E7
:1025F00040F8264004685F000326BE40F64306EA22
:10260000040C4C6804F00304BC4044EA0C0404606D
:102610004C6804F1FF3CBCF1010F03D9112C01D02F
:10262000122C10D1846806EA040CCC68BC4044EA41
:102630000C048460446824EA02024C68C4F3001469
:102640009C4014434460C26816408A68BA403243D2
:10265000C2604A6812F0805FABD0002201921D4A2E
:10266000546C44F480445464526C02F480420192ED
:10267000019A9C08A61C154A52F8267003F0030222
:1026800096000F22B24027EA0207134A90423FF415
:102690005CAF02F5806290420ED002F580629042FB
:1026A0000CD002F5806290420AD002F5806290421E
:1026B0003FF449AF072249E7012247E7022245E7F5
:1026C000032243E702B0F0BC704770470038014076
:1026D000003C0140003802400000024012B90904E9
:1026E000816170478161704743695940416170471A
:1026F000074AD36823F4E0631B041B0C000200F4B8
:10270000E060184340F0BF6040F40030D060704794
:1027100000ED00E030B4174BDB68C3F30223C3F1D4
:102720000704042C28BF04241D1D062D18D9033BC3
:102730004FF0FF3505FA04F421EA0401994005FA47
:1027400003F322EA0303194300280BDB0901C9B292
:1027500000F1604000F5614080F8001330BC704724
:102760000023E5E700F00F000901C9B2024B19543C
:10277000F4E700BF00ED00E014ED00E000F01F0200
:10278000400901239340024A42F82030704700BFBD
:1027900000E100E00138B0F1807F0AD2064B5860BA
:1027A000064AF02182F823100020986007221A6060
:1027B00070470120704700BF10E000E000ED00E02E
:1027C000042805D0054A136823F0040313607047FA
:1027D000024A136843F004031360704710E000E0FE
:1027E00010B504460E4B18784FF47A73B3FBF0F330
:1027F0000C4A1068B0FBF3F0FFF7CCFF68B90F2C60
:1028000001D901200AE0002221464FF0FF30FFF7F6
:1028100081FF054B1C60002000E0012010BD00BFBF
:1028200000000020080000200400002008B50B4B29
:102830001A6842F400721A601A6842F480621A60E0
:102840001A6842F480721A600320FFF751FF0F20CC
:10285000FFF7C6FFFEF754F8002008BD003C024019
:10286000034A1168034B1B780B441360704700BF89
:102870008440002000000020014B1868704700BF12
:102880008440002038B50446FFF7F6FF0546B4F152
:10289000FF3F02D0044B1B781C44FFF7EDFF401BA9
:1028A000A042FAD338BD00BF000000200F49D1F884
:1028B000883043F47003C1F888300D4B1A6842F039
:1028C00001021A60002098601A6822F0847222F4D3
:1028D00080321A60074A5A601A6822F480221A600D
:1028E000D8604FF000638B60704700BF00ED00E0E0
:1028F0000038024010300024124A12F0070F1ED098
:10290000D11D21F00701C1F5705313440A460E484A
:102910000260002141601344083B23F007030B4889
:10292000036059601960991A51601360084B19606F
:10293000084B1960084B4FF000421A6070474FF483
:102940007053E4E7E8010020F43D0020E40100209A
:10295000F03D0020EC3D0020E83D002010B4134B7A
:102960001A6882421BD359685C18844203D14068BC
:1029700001445960184641684418A24213D10C4CD6
:102980002468A2420DD05268114441601A6812684E
:102990000260984200D018605DF8044B70471346FF
:1029A000DEE70460F5E70260F3E700BFF43D0020D6
:1029B000E401002070B5044600F012FC3A4B1B689D
:1029C000BBB13A4B1B681C4263D1ACB1083414F064
:1029D000070F11D024F00704083404F007035BB19B
:1029E0004FF0500383F31188BFF36F8FBFF34F8F06
:1029F000FEE7FFF781FFE4E7002C4CD02C4B1B686F
:102A0000A3424AD32B4B1D6801E02B4615466A684A
:102A1000A24202D22A68002AF7D1234A1268AA42A7
:102A20003DD01E6808362A681A606B681B1B102B85
:102A300010D9281910F0070F08D04FF0500383F376
:102A40001188BFF36F8FBFF34F8FFEE743606C6059
:102A5000FFF784FF6A6816490B689B1A0B601649DA
:102A600009688B4201D214490B60104B1B68134359
:102A70006B6000232B6000F047FC16F0070F10D0AE
:102A80004FF0500383F31188BFF36F8FBFF34F8F65
:102A9000FEE70026EFE70026EDE70026EBE700263D
:102AA000E9E7304670BD00BFE4010020E83D0020AA
:102AB000EC3D0020F43D0020F03D002080B338B50F
:102AC0000446A0F1080550F8042C164909680A428A
:102AD00008D14FF0500383F31188BFF36F8FBFF31A
:102AE0004F8FFEE750F8080C40B14FF0500383F3CE
:102AF0001188BFF36F8FBFF34F8FFEE722EA010209
:102B000044F8042C00F06CFB54F8041C064A1368CB
:102B10000B4413602846FFF721FF00F0F5FB38BD9A
:102B2000704700BFE83D0020EC3D00200B4B1B68C8
:102B3000B3F1FF3F08D04FF0500383F31188BFF388
:102B40006F8FBFF34F8FFEE74FF0500383F3118871
:102B5000BFF36F8FBFF34F8FFEE700BF0C00002065
:102B600006480068006880F3088862B661B6BFF363
:102B70004F8FBFF36F8F00DF00BF000008ED00E054
:102B8000DFF80C00016841F470010160704700003B
:102B900088ED00E04FF0807340F8043C21F0010123
:102BA00040F8081C054B40F80C3C40F8202C6FF016
:102BB000020340F8243C4438704700BF2D2B000826
:102BC000074B19680868B0E8F04F80F30988BFF335
:102BD0006F8F4FF0000080F311887047AFF30080D3
:102BE000043E00204FF0500383F31188BFF36F8F32
:102BF000BFF34F8F0A4A136801331360012B00D0D3
:102C00007047084B1B6813F0FF0FF9D04FF05003CB
:102C100083F31188BFF36F8FBFF34F8FFEE700BFC1
:102C20000C00002004ED00E0094B1B6843B94FF095
:102C3000500383F31188BFF36F8FBFF34F8FFEE70D
:102C4000013B034A13600BB983F31188704700BF3F
:102C50000C00002000000000000000000000000048
:102C6000EFF30980BFF36F8F154B1A681EF0100F3A
:102C700008BF20ED108A20E9F04F10604DF8043DA8
:102C80004FF0500080F31188BFF34F8FBFF36F8F69
:102C900000F01CFC4FF0000080F3118808BC19689C
:102CA0000868B0E8F04F1EF0100F08BFB0EC108AB3
:102CB00080F30988BFF36F8F704700BFAFF30080C8
:102CC000043E002008B54FF0500383F31188BFF392
:102CD0006F8FBFF34F8F00F08BFA18B1034B4FF09B
:102CE00080521A60002383F3118808BD04ED00E0D0
:102CF000064B1B68064AA2FB03239B09013B054ABE
:102D00001360054B07221A60704700BF08000020BF
:102D1000D34D621014E000E010E000E0314B1A687F
:102D2000314B9A420DD02F4B1A68304B9A4211D139
:102D30004FF0500383F31188BFF36F8FBFF34F8FB2
:102D4000FEE74FF0500383F31188BFF36F8FBFF39B
:102D50004F8FFEE700B583B0254B1A78D2B20192AF
:102D6000FF221A701B78DBB28DF803309DF8033018
:102D700003F050031F4A13701F4B07221A609DF87F
:102D8000033013F0800F0AD01B4A1368013B136015
:102D90009DF803305B00DBB28DF80330EFE7164A95
:102DA00013681B0203F4E0631360019BDBB2104A5B
:102DB0001370124B1A6842F470021A601A6842F0DB
:102DC00070421A60FFF794FF0D4B00221A60FFF764
:102DD000D7FE0C4A136843F040431360FFF7C0FE70
:102DE000FFF7A4FE00ED00E071C20F4170C20F4179
:102DF00000E400E0FC3D0020003E002020ED00E06B
:102E00000C00002034EF00E000F1080343604FF0B5
:102E1000FF328260C36003610023036070470023B8
:102E20000361704743684B609A688A609A68516092
:102E300099600861036801330360704730B40D681E
:102E4000B5F1FF3F02D000F1080202E0026904E0A0
:102E50001A4653681C68AC42FAD953684B609960B3
:102E60008A605160086103680133036030BC7047B9
:102E700003694268816891608268416851605A685C
:102E8000824205D00022026118680138186070473C
:102E900082685A60F6E70000084B1B681B683BB16C
:102EA000064B1B68DB68DB685A68054B1A60704785
:102EB000034B4FF0FF321A60704700BF083E0020FE
:102EC000E03E002010B50446006BFFF7F7FD2046FA
:102ED000FFF7F4FD10BD2DE9F04780469946089DA7
:102EE000099F0A9C266B02F18042013A06EB82069A
:102EF00026F0070600230F2B07D8C85CE21882F8DB
:102F00003400CA5C0AB10133F5E7002384F843308A
:102F1000062D00D90625E56265644FF0000AC4F865
:102F200048A0201DFFF77BFF04F11800FFF777FF93
:102F30002461C5F10705A5616462C4F84CA084F85A
:102F400050A04A4641463046FFF724FE206007B1B4
:102F50003C60BDE8F087000038B5002407E004EBD2
:102F6000840293000E481844FFF74EFF0134062CEC
:102F7000F5D90C4D2846FFF747FF0B4C2046FFF7CD
:102F800043FF0A48FFF740FF0948FFF73DFF0948A4
:102F9000FFF73AFF084B1D60084B1C6038BD00BFAF
:102FA000103E0020B43E0020C83E0020E83E002035
:102FB000143F0020003F0020083E00200C3E00206F
:102FC00010B50446FFF70EFE204A13680133136064
:102FD0001F4B1B685BB11F4B1B686BB91C4B1B68FD
:102FE000DA6AE36A9A4207D8194B1C6004E0184B6E
:102FF0001C601368012B26D0174A13680133136035
:10300000E36A01229A401549086802430A6003EB0B
:1030100083039A00211D12481044FFF703FFFFF7B6
:1030200003FE0C4B1B686BB1094B1B68DA6AE36A41
:103030009A4207D20B4B4FF080521A60BFF34F8F6A
:10304000BFF36F8F10BDFFF787FFD5E79C3E0020D1
:10305000043E0020FC3E0020AC3E0020B03E00209C
:10306000103E002004ED00E070B504460E461D4BF6
:103070001D681D4B18680430FFF7FAFE50B91A4B53
:103080001B68DA6A012303FA02F218490B6823EA83
:1030900002030B60B4F1FF3F13D02C44124B1B68AA
:1030A0005C60A54216D8124B18680F4B19680431A2
:1030B000FFF7C4FE0F4B1B68A34212D90D4B1C60D7
:1030C0000FE0002EE9D0084B196804310A48FFF7D9
:1030D000A9FE06E0094B1868034B19680431FFF795
:1030E000ADFE70BD283F0020043E0020B03E002011
:1030F000083E0020E03E0020003F00200C3E002063
:103100002DE9F04385B0074688461546994690005C
:10311000FFF750FCF8B106465420FFF74BFC04467D
:10312000A8B10663D4B10023039302940D9B0193CD
:103130000C9B00934B462A4641463846FFF7CBFE90
:103140002046FFF73DFF012005B0BDE8F083304683
:10315000FFF7B4FCE6E74FF0FF30F5E74FF0FF3044
:10316000F2E7000000B583B0174B019300230093F2
:10317000802216491648FFF7C3FF012805D0B0F199
:10318000FF3F17D003B05DF804FB4FF0500383F30B
:103190001188BFF36F8FBFF34F8F0E4B4FF0FF328D
:1031A0001A600D4B01221A600C4B00221A60FFF7C7
:1031B000B5FDE7E74FF0500383F31188BFF36F8F3E
:1031C000BFF34F8FFEE700BFDC3E0020E451000854
:1031D000A5340008E03E0020FC3E0020283F0020EF
:1031E000024A136801331360704700BFA83E0020F5
:1031F000F8B53A4B1B68002B64D1394B1D6801357B
:103200001D60C5B9374B1B681B6843B14FF05003B5
:1032100083F31188BFF36F8FBFF34F8FFEE7314AFF
:103220001168314B186810601960304A1368013317
:103230001360FFF731FE2E4B1B68AB4238D90024D8
:103240002C4B1B68DB6A03EB83039A002A4B9B58C9
:10325000012B3CD901243AE00124224B1B681B6856
:1032600043B3204B1B68DB68DE6873689D4226D33E
:10327000371D3846FFF7FCFDB36A1BB106F1180095
:10328000FFF7F6FDF36A01229A401C4908680243E1
:103290000A6003EB83039A00394617481044FFF78E
:1032A000C1FDF26A134B1B68DB6A9A42D4D2D4E7A1
:1032B0000024D2E70E4B4FF0FF321A60C0E70C4AF1
:1032C0001360BDE70E4A13680133136000240D4BF1
:1032D0001B6803B101242046F8BD00BFA83E0020B2
:1032E000283F0020083E00200C3E0020E43E002045
:1032F000E03E0020043E0020103E0020B03E0020B2
:10330000A43E00202C3F002038B5334B1B6843B946
:103310004FF0500383F31188BFF36F8FBFF34F8FCC
:10332000FEE7FFF75FFC2C4B1A68013A1A601B6836
:10333000002B4DD1294B1B6823B90024FFF774FCE7
:10334000204638BD0024264B1B681BB3244BDB688A
:10335000DC6804F11800FFF78BFD251D2846FFF7F8
:1033600087FDE36A01229A401E49086802430A6009
:1033700003EB83039A0029461B481044FFF752FDD4
:10338000E26A1A4B1B68DB6A9A42DCD3184B0122B3
:103390001A60D8E70CB1FFF77FFD164B1C6854B1DB
:1033A000FFF726FF10B1124B01221A60013CF7D142
:1033B000104B00221A600E4B1B685BB10E4B4FF096
:1033C00080521A60BFF34F8FBFF36F8F0124B5E7B0
:1033D0000024B3E70024B1E7A83E00209C3E002073
:1033E000E83E0020B03E0020103E0020043E0020B9
:1033F0002C3F0020A43E002004ED00E010B5A8B151
:1034000004460F4B1B6843B14FF0500383F3118800
:10341000BFF36F8FBFF34F8FFEE7FFF7E1FE002191
:103420002046FFF721FEFFF76FFF38B9054B4FF03D
:1034300080521A60BFF34F8FBFF36F8F10BD00BF74
:10344000A83E002004ED00E0134B1B6813B310B539
:10345000FFF7C6FE114B1C68FFF756FF24B90E4B51
:103460001B68002BF4D110BDFFF7BCFB0B4BDB68D6
:10347000DC68201DFFF7FCFC094A1368013B136060
:10348000054A1368013B1360FFF7CEFB2046FFF7A8
:1034900019FDE4E7704700BFA03E0020143F002064
:1034A0009C3E002008B5FFF7CFFF064B1B68012BA1
:1034B000F9D9054B4FF080521A60BFF34F8FBFF31D
:1034C0006F8FF0E7103E002004ED00E0204B1B68FA
:1034D0001BB1204B01221A6070471E4B00221A605C
:1034E0001D4B1B68B3FA83F3DBB2C3F11F0303EB7D
:1034F00083018A0019498A5842B94FF0500383F377
:103500001188BFF36F8FBFF34F8FFEE710B41348DE
:103510009A00D418A10001444C6864684C601A44B5
:1035200091000831084484420BD003EB83039A00D6
:103530000A4B13445B68DA68094B1A605DF8044B68
:10354000704761680548142202FB03025160ECE7F2
:10355000A83E00202C3F0020B03E0020103E00205E
:10356000043E0020054B1B6833B1054B1B680BB1B3
:10357000002070470220704701207047FC3E002069
:10358000A83E0020842801D00330704700207047F7
:1035900008B5FFF7E7FD002008BDF0B585B00F4680
:1035A000446805680669B0F90800FFF7EBFF03AB54
:1035B000019300903B46B2B229462046FFF7A0FD9A
:1035C000012802D1039805B0F0BD0020FBE708B543
:1035D000034600B901231846FFF710FF002008BD7D
:1035E00008B5FFF7BFFF012801D0FFF76BFB08BD4F
:1035F00010B5094C00220949204600F043FF084954
:10360000204600F056FF0749204601F02BFC2046DB
:1036100000F056FF10BD00BF8840002010000020C1
:1036200054000020440000200368B3F1A04F00D0F4
:10363000704730B587B04FF40073019300240294B3
:103640000394164D01A92846FEF776FF4FF4E05388
:103650000193022302930394032304930A23059303
:1036600001A92846FEF768FF0D4B5A6B42F0800215
:103670005A6300945A6C42F480425A645B6C03F4BF
:1036800080430093009B224605214320FFF742F828
:103690004320FFF773F807B030BD00BF00000240C1
:1036A0000038024008B500F56F71D0F8EC0300F067
:1036B00020FF08BD08B5C1EBC10293000344D3F855
:1036C0000422D0F8EC0300F041FF08BD08B5C1EBBF
:1036D000C102930003445A6CD0F8EC0300F06BFF76
:1036E00008BD08B5D0F8EC0300F0EEFF08BD10B53A
:1036F0000446C3684BB10121D4F8EC0300F0D2FFBB
:10370000D4F8EC0300F0AFFF10BD0021F4E7000097
:1037100010B50446D0F8EC0300F0C7FF2268D2F8D9
:10372000003E43F00103C2F8003E236A23B1034A7E
:10373000136943F00603136110BD00BF00ED00E004
:1037400008B5D0F8EC0300F0B9FF08BD08B5D0F813
:10375000EC0300F0C9FF08BD08B5D0F8EC0300F099
:10376000C1FF08BD08B5D0F8EC0300F0BFFF08BDED
:1037700008B5D0F8EC0300F0BBFF08BD03780BB12F
:103780000020704710B503461748C0F8EC33C3F863
:1037900020024FF0A0430360042343600222C26072
:1037A0000023036143618261C361036243620122BA
:1037B000C262036300F0A8F980B90B4C8021204657
:1037C00000F05CFE40220021204600F033FE802203
:1037D0000121204600F02EFE002010BD40F25311C2
:1037E0000248FCF74BFFE8E7AC420020EC51000830
:1037F00008B5D0F8200200F0F7F918B1022803D07C
:10380000022008BD0020FCE70120FAE710B51C46A5
:1038100013462246D0F8200200F0F0FC18B102282E
:1038200003D0022010BD0020FCE70120FAE708B514
:10383000D0F8200200F016FD18B1022803D00220B3
:1038400008BD0020FCE70120FAE708B5D0F8200207
:1038500000F092FD18B1022803D0022008BD00201C
:10386000FCE70120FAE708B5D0F8200200F0B7FD28
:1038700018B1022803D0022008BD0020FCE7012077
:10388000FAE7D0F8203211F0800F08D101F07F0163
:10389000C1EBC1018A00134493F8FA01704701F0AB
:1038A0007F01C1EBC1018A00134493F83A007047CD
:1038B00008B5D0F8200200F08FFC18B1022803D020
:1038C000022008BD0020FCE70120FAE708B5D0F887
:1038D000200200F028FD18B1022803D0022008BD04
:1038E0000020FCE70120FAE708B5D0F8200200F03C
:1038F000E4FC18B1022803D0022008BD0020FCE738
:103900000120FAE708B5D0F8200200F003FD08BD59
:1039100012230B80004870472C00002004230B80EA
:10392000004870474000002008B50A4628B1054904
:10393000054801F048F9034808BD0249024801F072
:1039400042F9F8E79C4600202C52000810B5044CC0
:103950000A462146034801F036F9204610BD00BF53
:103960009C4600201852000808B50A4628B10549AF
:10397000054801F028F9034808BD0249024801F052
:1039800022F9F8E79C4600204452000808B50A4690
:1039900028B10549054801F016F9034808BD024958
:1039A000024801F010F9F8E79C460020FC5100089D
:1039B00008B50A4628B10549054801F004F903484D
:1039C00008BD0249024801F0FEF8F8E79C460020D5
:1039D00008520008002070470020704710B5054CC1
:1039E0000146204601F04DFA204601F067FA00201A
:1039F00010BD00BF8840002010B5064C00220649CB
:103A0000204601F036FA0549204601F03AFA002036
:103A100010BD00BF884000209C5000209C48002022
:103A200070B504460D460A4601460A4801F0BEFA42
:103A3000094BD3F81832D3F814320BB1012070BD02
:103A4000054E2A462146304601F013FA304601F071
:103A50001EFAF4E79C500020884000202DE9F04336
:103A600083B007460D46D0F80080CA00521A930072
:103A70000344DE6C1A6DB61A1B6C9E4200D91E46BA
:103A800006F103094FEA990915E006F103094FEA27
:103A90009909EB005B1B9C003C44616C3B7C0093F0
:103AA000B3B2EAB24046FDF72BFC636C3344636467
:103AB000236D33442365414608EB451303F510633A
:103AC0009B699BB24B4512D9EA00521B93003B44C1
:103AD0001A6DDB6C9A420AD24BB19E1AC5EBC50235
:103AE00093003B441B6C9E42CFD91E46CDE73EB9A6
:103AF0000123AB40D1F8345825EA0305C1F8345806
:103B0000002003B0BDE8F08300286BD0F0B58BB087
:103B10000446032380F8B933FFF786FD2068FDF7DC
:103B20003BF8254655F8107B6E460FCD0FC60FCDDE
:103B30000FC695E8030086E80300231D0ECB384628
:103B4000FCF7E6FF00212068FDF72CF8002210E0CA
:103B5000D100891A8B002344012183F8391083F89E
:103B60003820DA87002183F83B1019645964D9643E
:103B700001320E2AECD9002218E0D100891A8B00FC
:103B80002344002183F8F91183F8F821DA8783F8B8
:103B9000FB11C3F80012C3F80412C3F80C12236817
:103BA00002F1400003EB8003596001320E2AE4D990
:103BB000254655F8107B6E460FCD0FC60FCD0FC6AC
:103BC00095E8030086E80300231D0ECB3846FCF77A
:103BD000FFFF012384F8B9332068FDF73CFC002087
:103BE0000BB0F0BD0120704790F8B833012B0ED018
:103BF00010B50446012380F8B8330068FDF71FFCB8
:103C00002068FCF7C3FF002084F8B80310BD022031
:103C1000704700002DE9F047044605682846FDF787
:103C200055FC08B1BDE8F08706462068FDF71FFC8B
:103C30000028F7D02068FDF71AFC10F0020F04D01E
:103C40002268536903F0020353612068FDF70FFCFB
:103C500010F4002F75D137462068FDF708FC10F4EA
:103C6000802F40F0D2802068FDF701FC0028C0F2D0
:103C70003E812068FDF7FBFB10F4006F0AD0D5F8F9
:103C8000083813F0010F40F041812268536903F4B2
:103C9000006353612068FDF7EAFB10F4805F40F099
:103CA00039812068FDF7E3FB10F4005F40F082816A
:103CB0002068FDF7DCFB10F0100F14D02268936928
:103CC00023F0100393612E6A06F00F08C6F34343F6
:103CD000022B00F00382062B00F0218222689369F8
:103CE00043F0100393612068FDF7C1FB10F0080F4B
:103CF00040F029822068FDF7BAFB10F4801F40F0E5
:103D00002B822068FDF7B3FB10F4001F40F02E82D9
:103D10002068FDF7ACFB10F0804F40F03182206846
:103D2000FDF7A5FB10F0040F3FF47CAF23685D683E
:103D300015F0040F40F02D82226853682B43536026
:103D400070E72068FDF797FB8046374621E0F900D1
:103D5000C91B8A002244D2F800121B69C3F3120364
:103D6000C91AC2F81012D2F80012D2F804320B4469
:103D7000C2F8043228E019F0080F3DD119F0100FF5
:103D800004D005EB47131022C3F8082B01374FEA84
:103D90005808B8F1000F3FF45FAF18F0010FF5D0ED
:103DA0005FFA87FA51462068FDF775FB814610F0EF
:103DB000010FE0D005EB47130122C3F8082B03F5F0
:103DC00030632269012AC2D051462046FFF772FCB7
:103DD0002369012BCFD1002FCDD1C7EBC7029300B0
:103DE0002344D3F80C32002BC5D104F56F720121A6
:103DF0002068FDF78BFBBEE72046FFF753FC05EB81
:103E000047130822C3F8082BB8E72068FDF73BFBEF
:103E1000804637462EE0FA00D21B93002344196CEB
:103E20005A6C0A445A6446E019F0080F04D005EBB6
:103E300047130822C3F8082919F0100F04D005EB26
:103E400047131022C3F8082919F0400F04D005EBDE
:103E500047134022C3F8082919F0020F04D005EBDC
:103E600047130222C3F8082919F0800F3AD101370D
:103E70004FEA5808B8F1000F3FF4F5AE18F0010F03
:103E8000F5D05FFA87FA51462068FDF70DFB8146B1
:103E900010F0010FC8D0012202FA07F0D5F834382B
:103EA00023EA0003C5F8343805EB4713C3F80829A3
:103EB00023699342AFD051462046FFF707FC2369A0
:103EC000012BB1D1002FAFD1C7EBC7029300234420
:103ED000DB6C002BA8D104F56F7201212068FDF77F
:103EE00015FBA1E739462046FFF7B8FDBFE7D5F837
:103EF000043823F00103C5F804382046FFF720FCFE
:103F00002268536903F000435361B2E62046FFF78D
:103F1000FFFBBAE6A94605F50068D8F8043023F09F
:103F20000103C8F8043010212068FCF7F9FE07E00F
:103F300009EB4613FF22C3F80829C3F8082B013602
:103F40006368B342F4D84FF0FF33C8F81830D8F89C
:103F50001C3043F00113C8F81C30236BEBB1D8F8C8
:103F6000843043F00B03C8F88430D8F8443043F071
:103F70000B03C8F84430D5F8003823F4FE63C5F8C5
:103F8000003804F56F72217C2068FDF7BFFA2268C3
:103F9000536903F48053536183E6D8F8143043F037
:103FA0000B03C8F81430D8F8103043F00B03C8F8EE
:103FB0001030E0E72068FDF78DFA2268D36823F41B
:103FC0007053D3602068FCF7D8FE90B90023E360FB
:103FD0004FF4007363612268D36843F41053D360D5
:103FE0002046FFF784FB2268536903F400535361B2
:103FF0005EE60323E36040236361FEF793F9674BBA
:104000000344674A934205D82268D36843F4705347
:10401000D360E5E7634B0344634A934205D82268C3
:10402000D36843F46053D360DAE7A0F57403A3F5D3
:1040300010535E4A934205D82268D36843F4505324
:10404000D360CDE7A0F18373A3F5E743584A9342C9
:1040500005D82268D36843F44053D360C0E7554B7A
:104060000344554A934205D82268D36843F4305339
:10407000D360B5E7514B0344514A934205D82268B7
:10408000D36843F42053D360AAE74E4B03444E4A0F
:10409000934205D82268D36843F41053D3609FE756
:1040A000A0F1B773A3F55853484A934205D8226844
:1040B000D36843F40053D36092E7454B0344454A29
:1040C000934205D82268D36843F4E053D36087E76E
:1040D0002268D36843F4C053D36081E747F6F07396
:1040E0001E423FF4FBAD36094FEAC80AAAEB0803AB
:1040F0004FEA8309A144C6F30A02D9F804122846FC
:10410000FDF712F9C6F30A06D9F804323344C9F8A8
:104110000432D9F810321E44C9F81062DEE50822D4
:1041200004F56F712846FDF7FFF8C6F30A164FEA4B
:10413000C803A3EB08018A002244D2F810321E44BF
:10414000C2F81062CAE52046FFF7CBFA226853692D
:1041500003F008035361CDE5F9B22046FFF7FCFAFE
:104160002268536903F480135361CAE5F9B220460B
:10417000FFF7ECFA2268536903F400135361C7E5B3
:104180002046FFF7EFFA2268536903F0804353613A
:10419000C5E52046FFF7ECFACEE500BF405327FF08
:1041A000FF340C00401E1BFF3F420F007F4F1200E8
:1041B0001FD6130060B6E5FE5FE3160000D3CEFE07
:1041C0003F771B00C05BB3FEBF9121001F75380015
:1041D000E05459FEDF9C410090F8B833012B0BD01E
:1041E00010B50446012380F8B8330068FDF717F9CD
:1041F000002084F8B80310BD0220704770B54DB29E
:10420000002D22DB01F07F06C6EBC606B40004F5E4
:10421000FC74044401F07F012170ED0F6570A26011
:10422000E37005B1E180022B17D090F8B833012B71
:1042300016D00546012380F8B83321460068FCF704
:10424000BCFD002085F8B80370BD01F07F06C6EB09
:10425000C606B40038340444DCE700232371E4E7E5
:104260000220F1E710B54AB2002A1CDB01F07F04FE
:10427000C4EBC404A30003F5FC73034401F07F0105
:104280001970D20F5A7090F8B823012A13D004463F
:10429000012280F8B82319460068FCF7D7FD0020FA
:1042A00084F8B80310BD01F07F04C4EBC404A3007C
:1042B00038330344E2E70220F4E770B501F07F06EB
:1042C000F500A91B8C0004F5FC740119AD1BAC00B2
:1042D0000444C4F80422C4F80C320023C4F8103299
:1042E00084F8F93184F8F8610369012B06D066B1CE
:1042F000DAB20068FCF722FE002070BDC6EBC605EE
:10430000AC000444C4F80822F1E7DAB20068FCF714
:1043100047FFF1E701F00F01C1EBC1018B00184429
:10432000B0F81002704770B501F07F06F500A91BC8
:104330008C0038340119AD1BAC0004446264E364A2
:1043400000232365012384F8393084F83860036939
:10435000012B06D05EB1DAB20068FCF7EFFD002059
:1043600070BDC6EBC605AC000444A264F2E7DAB245
:104370000068FCF715FFF2E738B54AB2002A1DDBEA
:10438000C1EBC104A30003F5FC73034401249C703A
:1043900001F07F041C70D20F5A7090F8B823012AE4
:1043A0001BD00546012280F8B82319460068FCF7A7
:1043B000CFFF5CB1002085F8B80338BD01F07F0461
:1043C000C4EBC404A30038330344DFE705F56F7280
:1043D000297C2868FDF79AF8ECE70220EDE710B594
:1043E0004AB2002A1CDBC1EBC104A30003F5FC7335
:1043F000034400249C7001F07F011970D20F5A70A1
:1044000090F8B823012A13D00446012280F8B8237B
:1044100019460068FCF7CEFF002084F8B80310BDF1
:1044200001F07F04C4EBC404A30038330344E0E785
:104430000220F4E730B40468606A29B10D46A36A2B
:1044400000EB134000230CE040EA0240A06212E0BF
:1044500003F1400104EB8101496800EB1140013395
:10446000DBB2691E8B42F3DB40EA024005F13F01FB
:1044700004EB81014860002030BC7047036859623A
:104480000020704798B108B50346D0F8140210B167
:104490000020C3F8140209B1C3F810121846012312
:1044A00080F8FC310270FFF769F9002008BD022096
:1044B000704719B1C0F814120020704702207047ED
:1044C00008B5FFF795F9002008BD08B5D0F81432FB
:1044D00033B11B68984708B9002008BD0220FCE7EB
:1044E0000220FAE708B5D0F814325B68984700203C
:1044F00008BD38B5044600F50275284600F01DF9E0
:104500000123C4F8F431B4F80E32C4F8F83194F849
:10451000081201F01F03012B0ED03BB1022B10D06B
:1045200001F080012046FFF790F903E0294620467C
:1045300000F07DFA002038BD2946204600F09BFAA5
:10454000F8E72946204600F0B2FAF3E710B5044632
:1045500021BB1346D0F8F421032A01D0002010BD5E
:10456000D0F80C11D0F8102191420CD8D0F81432A8
:104570001B6923B190F8FC21032A00D198472046FB
:1045800000F06AFBEAE7891AC0F80C118A4228BFDA
:104590000A4692B2194600F057FBDFE70A46D0F808
:1045A00014329B69002BD9D090F8FC110329D5D186
:1045B00011469847D2E710B50446002946D1134664
:1045C000D0F8F421022A05D094F80032012B39D01A
:1045D000002010BDC169026A914219D88169B1FBFE
:1045E000F2F302FB13132BB98A4203D8D0F8F83147
:1045F00099421AD3D4F81432DB682BB194F8FC2119
:10460000032A01D120469847204600F030FBDBE723
:104610008A1AC26192B2194600F0FFFA00231A46C4
:1046200019462046FFF760F9CEE70022114600F058
:10463000F4FA0021C4F8F8110B460A462046FFF7A9
:1046400053F9C1E7002384F80032C1E70A46D0F8E5
:1046500014325B69002BBBD090F8FC110329B7D151
:1046600011469847B4E738B5044640230022114666
:10467000FFF7CCF84025C4F810512B4600228021CA
:104680002046FFF7C3F82562012384F8FC31D4F8F3
:1046900018322BB1D4F814325B6821792046984740
:1046A000002038BD01740020704790F8FC3180F87C
:1046B000FD31042380F8FC310020704790F8FD3173
:1046C00080F8FC310020704708B590F8FC31032BCE
:1046D00001D0002008BDD0F81432DB69002BF8D0DF
:1046E0009847F6E700207047002070470020704789
:1046F00008B5012280F8FC21D0F814225268017913
:104700009047002008BD002302E00133DBB20130F6
:104710000278002AF9D1184670474B88012B0BD13B
:1047200010B50446C0F80432D0F814329B6898479C
:10473000204600F091FA10BD70470B7803704B785B
:1047400043708B78CA7803EB022343800B794A7954
:1047500003EB022383808B79CA7903EB0223C380A6
:10476000704710B504468021FFF76FF800212046FE
:10477000FFF76BF810BD30B583B004460D464A888C
:10478000130A013B062B00F28180DFE803F00413DB
:10479000277F7F637000D0F810321B680DF106018F
:1047A000007C9847BDF8062012B1EB88002B71D130
:1047B00003B030BD037C43B9D0F814329B6A0DF1CD
:1047C0000600984702234370ECE7D0F81432DB6A06
:1047D0000DF10600984702234370E3E7D2B2052AA1
:1047E00034D8DFE802F0030B131B232BD0F8103270
:1047F0005B680DF10601007C9847D3E7D0F81032D2
:104800009B680DF10601007C9847CBE7D0F8103289
:10481000DB680DF10601007C9847C3E7D0F8103241
:104820001B690DF10601007C9847BBE7D0F81032F8
:104830005B690DF10601007C9847B3E7D0F81032B0
:104840009B690DF10601007C9847ABE72946FFF70D
:1048500088FFADE7037C33B9D0F814325B6B0DF100
:10486000060098479EE72946FFF77BFFA0E7037CF9
:1048700043B9D0F814321B6B0DF10600984707239B
:1048800043708FE72946FFF76CFF91E72946FFF752
:1048900068FF8DE79A4228BF1A46ADF80620014608
:1048A000204600F0ADF983E738B504468B88E3B9BC
:1048B000CB88D3B98D7805F07F0590F8FC31032BB8
:1048C0000CD080F8FE512946FEF7F2FF204600F09A
:1048D000C3F935B1022384F8FC3109E0FFF741FF49
:1048E00006E0012384F8FC3102E02046FFF739FF9F
:1048F00038BD000038B504460D468978254B19703F
:10490000012909D890F8FC31022B09D0032B1CD0C7
:104910002946FFF726FF02E02946FFF722FF38BDB0
:1049200081B14160032380F8FC31FFF7CEFD0228FE
:1049300003D0204600F090F9F1E729462046FFF722
:1049400010FFECE700F088F9E9E789B14368994284
:104950001DD0D9B2FFF7C6FD0E4B19786160204615
:10496000FFF7B3FD02280DD0204600F075F9D6E719
:10497000022380F8FC314160FFF7B4FD204600F0CF
:104980006BF9CCE729462046FFF7EBFEC7E700F0BE
:1049900063F9C4E7303F002008B5CB88012B08D16C
:1049A00090F8FC31022B07D0032B0DD0FFF7D9FE76
:1049B00001E0FFF7D6FE08BD0146002341F8083F9D
:1049C000012200F01DF9F6E70122011D00F018F99F
:1049D000F1E708B590F8FC31023B012B0CD801231C
:1049E000C360D0F804320BB10323C360022200F18C
:1049F0000C0100F005F908BDFFF7B3FEFBE710B5A9
:104A0000044690F8FC31023B012B0DD84B88012B5A
:104A100009D10023C0F80432D0F814329B689847BB
:104A2000204600F019F910BDFFF79BFEFBE708B523
:104A30004B78092B1CD8DFE803F012181B151B0953
:104A4000051B0F0CFFF797FE002008BDFFF72CFF9A
:104A5000FAE7FFF74FFFF7E7FFF79EFFF4E7FFF7EF
:104A6000B8FFF1E7FFF759FEEEE7FFF7C8FFEBE706
:104A7000FFF777FEE8E738B504460D4690F8FC31BD
:104A8000032B11D10B79012B0BD8D0F814329B6872
:104A90009847EB880BB1002038BD204600F0DCF8C9
:104AA000F9E7FFF75EFEF6E7FFF75BFEF3E738B5E1
:104AB00005460C468A880B7803F06003202B05D14D
:104AC000D0F814329B689847002038BDD1B2637883
:104AD000012B25D0002B47D0032BF5D190F8FC31CA
:104AE000022B05D0032B0AD02146FFF73AFEEBE755
:104AF0000029E9D08029E7D0FEF7A7FEE4E7638824
:104B000023B919B1802901D0FEF79FFED5F81432E0
:104B10009B68214628469847284600F09DF8D3E731
:104B200090F8FC31022B05D0032B0AD02146FFF769
:104B300018FEC9E70029C7D08029C5D0FEF785FE39
:104B4000C2E76388002BBFD111F07F0F03D1284645
:104B500000F082F8B8E7FEF786FED5F814329B68BD
:104B6000214628469847F2E790F8FC31022B05D001
:104B7000032B09D02146FFF7F4FDA5E711F07F0FC5
:104B8000A2D0FEF762FE9FE712F0800F11D101F074
:104B90007F04103400EB041404342846FEF771FE41
:104BA00070B10123236002222146284600F028F834
:104BB0008AE701F07F04013400EB04140434ECE7CD
:104BC00000232360EFE7D0B170B50D4616460446CA
:104BD000FFF799FD0130400080B230802870032338
:104BE0006B70022307E001345A1CD2B2E95402333D
:104BF000DBB20021A95421780029F4D170BD70479F
:104C000010B513460222C0F8F4218361C3610A463D
:104C10000021FEF75BFE002010BD08B513460A46D2
:104C20000021FEF753FE002008BD10B513460322F5
:104C3000C0F8F421C0F80831C0F80C310A46002150
:104C4000FEF752FE002010BD08B513460A460021AB
:104C5000FEF74AFE002008BD08B50423C0F8F43171
:104C600000231A461946FEF731FE002008BD08B59C
:104C70000523C0F8F43100231A461946FEF734FE26
:104C8000002008BDD0F818321BB10020C3F8140270
:104C900070470220704710B5D0F81842D0F81C3287
:104CA0005BB194F80002FF2807D09B6894F80122BA
:104CB00021469847FF2384F80032002010BD0000F1
:104CC00043230380004870478C0000204323038067
:104CD00000487047D00000204323038000487047FD
:104CE000200100200A23038000487047140100209F
:104CF00038B50446D0F81852FEF704FEC5F80C0289
:104D0000D4F818324BB1D4F81C32DB6805F50371C6
:104D1000D5F804029847002038BD0220FCE70000C7
:104D200070B505460C46D0F818620B7813F0600297
:104D300025D0202A07D1CA883AB9D0F81C329B68FE
:104D4000002248789847002070BD13F0800F0BD0E8
:104D5000D0F81C329B68314660789847E28831462B
:104D60002846FFF74DFFEEE74B7886F80032CB88F8
:104D700086F80132CA883146FFF757FFE3E74B78E0
:104D80000A2BE0D101220249FFF73AFFDBE700BF1F
:104D9000313F002010B504468121FEF748FD012176
:104DA0002046FEF744FD82212046FEF740FDD4F860
:104DB000183253B1D4F81C325B689847D4F8180203
:104DC00000F0ECF80023C4F81832002010BD38B50C
:104DD0000446037C73BB4FF4007302228121FEF76B
:104DE00015FD4FF40073022201212046FEF70EFD4F
:104DF0000823032282212046FEF708FD4FF40770A6
:104E000000F0C4F80546C4F8180248B3D4F81C32C0
:104E10001B6898470023C5F81432C5F81832237C64
:104E2000A3B14023D5F8042201212046FEF75CFD02
:104E3000002038BD402302228121FEF7E7FC4023F9
:104E4000022201212046FEF7E1FCD1E74FF4007376
:104E5000D5F8042201212046FEF746FD0020E8E7B0
:104E60000120E6E719B1C0F81C12002070470220AB
:104E70007047D0F81832C3F80812C3F81022002087
:104E80007047D0F81832C3F8041200207047D0F8E9
:104E900018228AB108B5D2F814320BB1012008BD2E
:104EA0000123C2F81432B2F81032D2F8082281215C
:104EB000FEF70CFD0020F2E702207047D0F8182220
:104EC0009AB108B5037C3BB14023D2F804220121FA
:104ED000FEF70AFD002008BD4FF40073D2F804224B
:104EE0000121FEF701FD0020F5E7022070470000D8
:104EF000DFF834D0002103E00C4B5B584350043101
:104F00000B480C4B42189A42F6D30B4A02E000239E
:104F100042F8043B094B9A42F9D3FDF7C7FC00F075
:104F200011F8FBF7A7FC704700000220645200084C
:104F300000000020C8010020C8010020A058002067
:104F4000FEE7000070B50D4E0D4CA41BA41000250B
:104F5000A54209D10B4E0C4C00F0FCF8A41BA41088
:104F60000025A54205D170BD56F82530984701357A
:104F7000EEE756F8253098470135F2E75C52000815
:104F80005C5200085C52000860520008024B014667
:104F9000186800F065B800BF64010020024B0146AC
:104FA000186800F00FB800BF6401002010B5431E60
:104FB0000A44914200D110BD11F8014B03F8014F92
:104FC000F7E7000038B50546002945D051F8043C04
:104FD0000C1F002BB8BFE41800F0ACF81F4A136890
:104FE000104633B9636014602846BDE8384000F0CD
:104FF000A2B8A3420CD921686218934204BF1A6870
:105000005B68636004BF521822600460ECE71346DB
:105010005A680AB1A242FAD919685818A0420BD1AD
:1050200020680144581882421960DDD11068526826
:105030005A6001441960D7E702D90C232B60D3E7EB
:10504000206821188A4204BF11685268626004BF58
:10505000091821605C60C7E738BD00BF343F0020FD
:1050600070B5CD1C25F0030508350C2D38BF0C2577
:10507000002D064601DBA94203D90C233360002032
:1050800070BD00F057F8214A1468214691B9204CB0
:1050900023681BB9304600F03DF8206029463046B1
:1050A00000F038F8431C24D10C233360304600F064
:1050B00042F8E4E70B685B1B18D40B2B0FD90B608D
:1050C000CD50CC18304600F036F804F10B00231D0B
:1050D00020F00700C31AD3D05A42E250D0E78C42E6
:1050E0004B6816BF636013600C46EBE70C464968DB
:1050F000CCE7C41C24F00304A04205D0211A30469A
:1051000000F008F80130CFD02560DBE7343F002005
:10511000383F002038B5064C00230546084623607A
:1051200000F00AF8431C02D1236803B12B6038BD9C
:105130009C58002070477047044A05491368002BAB
:1051400008BF0B4618441060184670473C3F0020CB
:10515000A0580020F8B500BFF8BC08BC9E467047B8
:0C516000F8B500BFF8BC08BC9E467047C4
:10516C00C0510008290600080000000000000000E3
:10517C0080000000B051000861060008000000002B
:10518C0000000000800000005372632F6D61696E97
:10519C002E63000048656C6C6F20776F726C640D29
:1051AC000A000000636F6E74696E756F75735461DD
:1051BC00736B000064656661756C745461736B008D
:1051CC0000000000000000000102030406070809AB
:1051DC00000000000102030449444C45000000009B
:1051EC005372632F757362645F636F6E662E630018
:1051FC0043444320436F6E66696700004344432079
:10520C00496E7465726661636500000053544D69A4
:10521C0063726F656C656374726F6E6963730000A3
:10522C0053544D3332205669727475616C20436F40
:10523C006D506F72740000003030303030303030D0
:08524C00303031410000000088
:08525400BCAFFF7F0100000068
:04525C00C501000880
:04526000A1010008A0
:1052640001000000100000000024F400AAAAAAAA69
:10527400113900081D3900084D3900082939000882
:10528400693900088D390008B1390008120100029B
:10529400020200408304405700020102030100009F
:1052A40004030904F9390008D5390008D93900087C
:1052B400DD390008CF4D0008954D0008214D000848
:1052C40000000000974C0008854C0008F14C0008D1
:1052D400000000000000000000000000CD4C0008A9
:1052E400C14C0008D94C0008E54C000809024300F1
:1052F400020100C032090400000102020100052479
:105304000010010524010001042402020524060002
:10531400010705820308001009040100020A0000C5
:10532400000705010240000007058102400000005B
:1053340009024300020100C0320904000001020214
:1053440001000524001001052401000104240202C7
:105354000524060001070582030800100904010062
:10536400020A00000007050102000200070581028D
:10537400000200000A0600020000004001000000D4
:1053840009074300020104C03209040000010202BB
:105394000100052400100105240100010424020277
:1053A4000524060001070582030800FF0904010023
:1053B400020A0000000705010240000007058102FF
:1053C4004000000068010020000000000000000010
:1053D40000000000000000000000000000000000C9
:1053E40000000000000000000000000000000000B9
:1053F40000000000000000000000000000000000A9
:105404000000000000000000000000000000000098
:105414000000000000000000000000000000000088
:08542400000000000000000080
:0400000508004EF1B0
:00000001FF
